:100000000C9476000C9497000C9497000C94970035
:100010000C9497000C9497000C9497000C94970004
:100020000C9497000C9497000C9497000C949700F4
:100030000C9497000C9497000C9497000C949700E4
:100040000C9497000C9497000C9497000C949700D4
:100050000C9497000C9497000C9497000C949700C4
:100060000C9497000C94E0010C9497000C9497006A
:100070000C9497000C9497000C9497000C949700A4
:100080000C9497000C9497000C9497000C94970094
:100090000C940D020C9497000C9497000C9497000C
:1000A0000C9497000C9497000C9497000C94970074
:1000B0000C9497000C9497000C9497000C94970064
:1000C0000C9497000C9497000C9497000C943A02AF
:1000D0000C9497000C9497000C9467020C94970072
:1000E0000C9497000C9494020C94980211241FBE57
:1000F000CFEFD1E2DEBFCDBF00E00CBF12E0A0E049
:10010000B2E0E6EFF5E000E00BBF02C007900D9211
:10011000A434B107D9F722E0A4E4B2E001C01D92F3
:10012000AC34B207E1F70E949C020C94F9020C94E3
:100130000000813009F445C078F1823019F0833035
:10014000B1F008958091D10088608093D1008091B2
:10015000D10080618093D1008091D100806880932C
:10016000D1008091D20084608093D2000895809164
:1001700031018860809331018091310180618093E9
:100180003101809131018068809331018091320189
:1001900084608093320108958091C10088608093CB
:1001A000C1008091C10080618093C1008091C10035
:1001B00080688093C1008091C20084608093C200F7
:1001C00008958091C90088608093C9008091C9001A
:1001D00080618093C9008091C90080688093C900C4
:1001E0008091CA0084608093CA000895CF93C82F7D
:1001F000DB01CA01880F991FAA1FBB1F880F991F17
:10020000AA1FBB1F9C01AD01220F331F441F551FA6
:10021000220F331F441F551F60E074E284EF90E00B
:100220000E94D70221503109C130B9F080F0C230AC
:1002300041F0C33021F43093350120933401CF9144
:1002400008953093D5002093D400CF910895309332
:10025000C5002093C400CF9108953093CD00209322
:10026000CC00CF910895813031F098F0823051F078
:100270008330B1F008958091C80085FFFCCF609372
:10028000CE0008958091D00085FFFCCF6093D6000A
:1002900008958091C00085FFFCCF6093C60008954B
:1002A0008091300185FFFCCF60933601089550E0C6
:1002B0004115510509F463C0FB0120E030E0919144
:1002C0008130C1F008F452C08230E1F1833031F165
:1002D0002F5F3F4F2417350791F708959093CE0075
:1002E0002F5F3F4F241735070CF04BC0FB01E20F87
:1002F000F31F90818091C80085FDF0CF8091C800E8
:1003000085FFF8CFEBCF909336012F5F3F4F241737
:100310003507C4F5FB01E20FF31F90818091300196
:1003200085FDF1CF8091300185FFF8CFECCF909320
:10033000D6002F5F3F4F241735072CF5FB01E20F46
:10034000F31F90818091D00085FDF1CF8091D00086
:1003500085FFF8CFECCF9093C6002F5F3F4F241757
:10036000350774F4FB01E20FF31F90818091C00008
:1003700085FDF1CF8091C00085FFF8CFECCF0895C7
:1003800008950895089508958130A9F078F0823095
:1003900019F0833031F00895709349026093480258
:1003A000089570934B0260934A020895709345023A
:1003B0006093440208957093470260934602089543
:1003C0001F920F920FB60F9211240BB60F922F931C
:1003D0003F934F935F936F937F938F939F93AF93CD
:1003E000BF93EF93FF938091C600E0914402F09198
:1003F00045021995FF91EF91BF91AF919F918F9118
:100400007F916F915F914F913F912F910F900BBE14
:100410000F900FBE0F901F9018951F920F920FB65E
:100420000F9211240BB60F922F933F934F935F932C
:100430006F937F938F939F93AF93BF93EF93FF93AC
:100440008091CE00E0914602F09147021995FF910C
:10045000EF91BF91AF919F918F917F916F915F913C
:100460004F913F912F910F900BBE0F900FBE0F90A9
:100470001F9018951F920F920FB60F9211240BB672
:100480000F922F933F934F935F936F937F938F932D
:100490009F93AF93BF93EF93FF938091D600E0912A
:1004A0004802F09149021995FF91EF91BF91AF91E8
:1004B0009F918F917F916F915F914F913F912F917C
:1004C0000F900BBE0F900FBE0F901F9018951F92AC
:1004D0000F920FB60F9211240BB60F922F933F93EA
:1004E0004F935F936F937F938F939F93AF93BF933C
:1004F000EF93FF9380913601E0914A02F0914B0215
:100500001995FF91EF91BF91AF919F918F917F913D
:100510006F915F914F913F912F910F900BBE0F9074
:100520000FBE0F901F901895682F80E00C94330138
:10053000682F83E00C94330180E00E94990064E905
:1005400072E080E00E94C40140E051EE60E070E0A3
:1005500080E00E94F60044E160E072E080E00E94EA
:10056000570183E00E94990068E972E083E00E94ED
:10057000C40148E357E260E070E083E00E94F600C7
:1005800044E165E172E083E00E945701789448E11C
:100590006AE272E080E00E9457012FEF83ED90E362
:1005A000215080409040E1F700C00000F0CFA1E270
:1005B0001A2EAA1BBB1BFD010DC0AA1FBB1FEE1FDD
:1005C000FF1FA217B307E407F50720F0A21BB30B28
:1005D000E40BF50B661F771F881F991F1A9469F7A4
:1005E00060957095809590959B01AC01BD01CF0100
:0605F0000895F894FFCF0E
:1005F600554152545F3020696E697469616C697A3D
:1006060065640D0A00554152545F3320696E697462
:1006160069616C697A65640D0A0055415254303A35
:10062600424F4744414A2C205652414B5A454D4968
:040636000D0A0000A9
:00000001FF
